:020000040000fa
:080000000002040000000000f2
:020000040000fa
:10000800a2020000a2020000a2020000a202000058
:10001800a2020000a2020000a2020000a202000048
:10002800a2020000a2020000a2020000a202000038
:10003800a2020000a2020000a2020000a202000028
:020000040000fa
:020000040000fa
:10040000ef9620000eff20000e0188000000000083
:10041000000020000000e000020032000001200087
:10042000200288000c00070060ad200001002000c1
:1004300011000700000020000000e0000200320070
:100440000000020000000000a40a020000000000fa
:100450000040da000000fe004440a900a007200090
:100460000000e0000300320000002000a00188002e
:100470004440a80000000600910188008000780038
:100480000000eb0015003700e280400032a0b4000d
:100490009101ba00e280400032a0b4009102ba009b
:1004a000e280400032a0b4000002eb00472bde00e7
:1004b000f507b200602ce10004003a000059eb009f
:1004c0008301e900fdff3e00040037006128e100e0
:1004d000010032000082eb00040007001101ba00a5
:1004e0000200e000e8ff3a00000006003159ba00bf
:1004f0008301e9000c0032002159ba008301e900b0
:10050000080032000400e00003003a00e2804000ee
:1005100032a0b400f5ff370011d9ba008301e90019
:10052000faff3a008100e800e180400032a0b40008
:1005300000000600000000000000000000000000b5
:10054000000000000040da000000fe002002e2008f
:1005500004003d002342ab00020032002302ab0046
:10056000feff32000040da00feff37000a00fa000a
:1005700011002000b1bf9f00c0bf9f006a805700dc
:10058000d50207004fb897000080fa00000006006f
:100590000a00fa00e20f500020003e00504b80009d
:1005a000e10f500006003200802320004523200088
:1005b00023232000042320000000e00004003a0070
:1005c0008022200045222000232220000422200037
:1005d000060028001403630003003a0006087800b0
:1005e00000002800140a700013a8a30001003a00bc
:1005f00013a0a00002007800050037001388a300b4
:10060000feff32003102fb00840a78000000e9009e
:100610000000e000f9ff3a00080037003300200036
:10062000b3bf9f00c0bf9f00d1bf9f00e2bf9f002c
:100630006a805700aa0207006fb99700020078008d
:100640000080fa00000006000a00fa0051002000b5
:10065000b1bf9f00c0bf9f006a805700a202070081
:100660005fb897000080fa0000000600889fbe0077
:1006700080047800604b80000000e00004003a0035
:100680000e0007000084eb000000e00008003500c9
:10069000684b80000900e0000500320009004400ba
:1006a000060007000000e00001003d000084eb00b0
:1006b000080078004f04be000000060080007800ab
:1006c0000100e00003003a0000002000604b8800b9
:1006d000000005000080eb0002002000828f500027
:1006e00002003e00614b88000000eb0000000600a5
:1006f000000478000600370001804000a24a800014
:10070000620078008100e800b14a88000000010022
:10071000b14a8000c04a8000808f5000f6ff390047
:1007200040902000a04a880020022000c04a880093
:100730000800780085ff07000000e0000700320095
:100740001004e0000500320001852000b40007001d
:1007500001852000a0952000b10007008000eb007b
:10076000f04a80000500070001852000ac0007006a
:1007700001852000a000200041003700889fbe00b6
:10078000800478000104780030022000808f54003b
:100790001300320007003c000080e900808f540005
:1007a0002b0032000c003c000900e0000800320081
:1007b0001100370040022000808f54000a003200f0
:1007c0000000e800808f54000b003a00080037005a
:1007d0008888200021003700e88920001f003700aa
:1007e000a88a20001d003700188c20001b0037004d
:1007f000a88d20001900370050022000808f54007f
:1008000015003e000800e00001003a008894200036
:10081000818f2000080078003f000700a200200020
:10082000110009008204d80003c3b30083c4400050
:10083000194c9800110009000200d80003c04000c4
:10084000004c980003407800704498000300370083
:100850001889200001003700a88e200008007800c9
:100860004f04be0000000600004b80000000e000c6
:100870000100320000000100e095200000000600a9
:10088000889fbe008a1f78000004be00c900900047
:1008900069009000808f5000050039000900780041
:1008a000be0007008080eb000000e000160035006d
:1008b000084578004900900008587800c004980066
:1008c0001900780000b8a30004003a0000a8a300b3
:1008d00007003200ea4f540005003a000900780092
:1008e000140007008080eb000000e00006003a00e2
:1008f00000c0200019006000020032004900900092
:10090000e00498008a80fb00010078004f05780021
:100910004f04be00000006000001eb00e141790039
:10092000037079000201e8000304e000fbff3a00d5
:1009300000000600889fbe008a1f7800000478002f
:100940000800e0000d003a006887200070054400b0
:100950008004eb00580078000000e0000400320042
:10096000f4ff07000000e00001003d008084eb0080
:100970008a0f5400f7ff3a002500370000002200dc
:10098000180060008004eb0021003200a8049000f1
:100990000f00370009015100384090000000fb00b3
:1009a00089007800fafe07000000e00007003c0024
:1009b000280090004004980060049800500c9800b3
:1009c0001890a0008084eb00110037008084440060
:1009d00048019000828f5400eeff390028009000fb
:1009e000400498009800780002c020000281600056
:1009f00001003a003800900001e8a3000200320034
:100a00006004980001003700500c98008004eb004f
:100a1000090078004f0578004f04be000000060072
:100a2000889fbe008a9fbe00800478000104780081
:100a30002c003700c800900068009000808f5000a4
:100a40000400390008007800540007000000e000ae
:100a50003700350000402000180060000900320017
:100a6000a1002000090078004200070080057800fe
:100a70000b00e00003003200618514000a85450088
:100a800004003700090078003400070000057800f2
:100a90008005eb0048009000e80090008080500046
:100aa0008a8f500002003100010578008005eb00bc
:100ab0000a017800890078002100070048009000b2
:100ac0000a004000400498000b00e00004003200df
:100ad0000800780097ff07000000e00014003a00cb
:100ae0008a8444001904e000d2ff3a00008020000c
:100af0001800600006003200080078008dff070033
:100b0000800078000080eb000100e00009003a005e
:100b100001c02000988060000000eb00050032005a
:100b200048009000600498000000eb0001003700ce
:100b30000080eb004f05be004f04be000000060021
:100b40008001780002003700b15978000201e90005
:100b50000200e000fcff3a00000006008000780080
:100b6000010178003104e000fdff3a00000051006f
:100b7000000006000001eb0000027800b0417800a0
:100b800081cf510001003a00040178000304e00025
:100b9000f9ff3a000200780000000600889fbe00be
:100ba0008a1f780000047800c80090006801900057
:100bb0000000eb00828f50003c00390018007800e4
:100bc0002200290002016000e20f510007003200fc
:100bd000012024000000e00001003d000120200071
:100be000008c70000080eb0030003700020026000f
:100bf00002006000820f500009003a0038009000a7
:100c0000808f5000060039000800780049ff070077
:100c1000800078000080eb000100e00023003a0033
:100c20001805780000c020000000650018003a0098
:100c3000a80490006002200008004000808f54004b
:100c400013003a0000202000ef0007002004980065
:100c50000000e00005003a002904980049049800cb
:100c60008904e80039049800080037000a60a000f1
:100c70000a0c780040049800012020008080400089
:100c800031049800400c9800500c98000c000700ac
:100c900028009000500498003800900060049800ec
:100ca00000002600180c70000000eb004f057800d3
:100cb0004f04be00000006002070200061003700d5
:100cc000881f7800689620001804e00003003a00ae
:100cd000f9ff070020c0b300004c78004f047800f3
:100ce00000000600889fbe0000047800080078001d
:100cf00010ff070080047800000420001800600046
:100d000002003200280090005a0007000000eb00ab
:100d100020049800384090000004e00005003500f1
:100d20000000fb0011fe07000000e000010032009f
:100d30008084eb00181090000000e00008003200f2
:100d400041fe07000000e000010032008084eb005b
:100d500018109000470007000000eb0010149800e6
:100d60000008200018006000150032000001eb00b0
:100d70006000b800838720000202d00063027a007e
:100d8000880f520005003a000000400081804800b2
:100d9000008041000008eb000600370061004000c1
:100da000e08048000201e800e80f5000e08f5800a2
:100db000f0ff3a00080078002e0007000e00370010
:100dc000000c780000c0eb00304498006002200066
:100dd0000800400020049800400498005004980047
:100de000400c980060049800500c98007004980023
:100df00076004400000c9800090078004f04be0003
:100e000000000600881f78000004eb006140b80075
:100e1000e2ff2f00f3ff2f00b500070062882000db
:100e2000620078000000e00001003200adff070022
:100e30000804e800e80f5400f4ff3a004f0478007b
:100e400000000600813720000100e00008003200a9
:100e5000b14a80000100e000050032008100e90095
:100e6000b14a88008100d000a24a800000b1780019
:100e7000000006000000e0002f003200c0017800f2
:100e8000e38f51002c0036000308a3002a003a002b
:100e9000214b80000100e00002003200810f500071
:100ea0000400310011009800204b88001600370024
:100eb00082007800110190000200e0000200320080
:100ec000800f5100faff390011027800848240003f
:100ed000850f500018003900808f520003003a003f
:100ee0008308420001007800070037000200e0009c
:100ef0000300320083014000830f51000e003900cf
:100f00001200980090009800900090000100e0000e
:100f10000900320010014000828f500006003a00a4
:100f2000229620000009eb00100178001108410012
:100f3000910090001100980000000600889fbe00fc
:100f400000047800114b80000100e0000200320034
:100f5000010078000d003700214b800040962000f2
:100f600004003700910f5400250036000180e8008e
:100f7000910090000100e000faff3a0010003700f5
:100f8000920f54001e0036000280e8001001780025
:100f90000200e000faff3a0011017800214b8000c6
:100fa0004096200004003700910f540014003600d2
:100fb0000180e80091009000828f5000faff3a0013
:100fc000494b8000888f540001003100880478006c
:100fd00009007800360007000000e00004003a0035
:100fe000888f5400050032008904d100f5ff3700d6
:100ff000091878009fff0700d2ff37000000eb00c0
:101000004f04be0000000600881f78006304400003
:101010000800a1008000eb00800f54002100360082
:10102000e30f540001003e00480020000800780053
:10103000c2ff07008000eb000000e0001900320052
:10104000900078009101780064815100880f510070
:1010500003003100110190000208780007003700fa
:101060000881400002087800910190001301980067
:101070001001780011091400880878001001780028
:101080000000eb000200e00004003200920190003a
:101090000300e000010032000280e800104b8800ed
:1010a0008180e800010078004f047800000006000d
:1010b000800078000000eb000100e0000500340033
:1010c0000100780069fd0700e10f400001003a00cf
:1010d0000000eb000000060000c0da00000006007f
:1010e00000c0da000000060000c0da0000000600c0
:1010f000020ab900001bb9000200b80081004200da
:0811000081004300000006001d
:020000040000fa
:101108006765000074450000766500006e74000095
:1011180053740000617400007573000020720000b1
:1011280065630000656900007665000064200000c2
:10113800696e0000766100006c69000064200000a0
:1011480065760000656e0000740000007570000090
:10115800646100007465000045760000656e00005b
:101168007441000063740000697600006520000087
:101178007265000063650000697600006564000020
:10118800206900006e760000616c00006964000050
:1011980020650000766500006e7400000075000090
:1011a8007064000061740000654500007665000009
:1011b8006e740000496e00006163000074690000ed
:1011c8007665000020720000656300006569000014
:1011d8007665000064200000696e000076610000fa
:1011e8006c6900006420000065760000656e0000f0
:0411f800740000007f
:020000040000fa
:1011fc001600fa002057980031579800220f9800db
:10120c002e5090000004e00011003a000000eb00aa
:10121c00000f78000000eb00100798000000eb00b6
:10122c00200798000000eb00300798000000eb004e
:10123c00400798000000eb00500798000000eb00fe
:10124c00600798000000eb00700798006e003700f4
:10125c002e509000e14f500039003a003e50900063
:10126c000080fb00e40f500023003200e40f50001c
:10127c000c003c00e10f500016003200e10f500052
:10128c0003003c000000e0000f0032002a00370091
:10129c00e20f500012003200e30f50001300320036
:1012ac0025003700e60f500019003200e60f500001
:1012bc0014003500e70f500018003200e80f500002
:1012cc00190032001c003700ae089000010f7800a6
:1012dc004d003700ae089000110798004a00370007
:1012ec00ae0890002107980047003700ae08900028
:1012fc003107980044003700ae0890004107980071
:10130c0041003700ae089000510798003e003700ae
:10131c00ae089000610798003b003700ae089000c3
:10132c007107980038003700ae089000010f980044
:10133c000000000034003700800c20003300370020
:10134c002e509000e24f50002f003a003e5090007b
:10135c000080fb00e40f50001f003200e40f50002f
:10136c000c003c00e10f500015003200e10f500062
:10137c0003003c000000e0000f00320020003700aa
:10138c00e20f500010003200e30f5000100032004a
:10139c001b003700e60f500013003200e60f500020
:1013ac000f003500e70f500011003200e80f50001d
:1013bc0011003200120037001e00780013003700b5
:1013cc001e009000110037002e0090000f00370017
:1013dc003e0090000d0037004e0090000b003700cf
:1013ec005e009000090037006e0090000700370087
:1013fc007e009000050037000e08900003003700b7
:10140c00800c2000010037000000eb000080fa0087
:10141c00000006000400fa00204798000001eb00d1
:10142c00ae40900020c0b30071ff0700000f7800a1
:10143c00800c20009e007800808f500004003a0041
:10144c0040882800b9fc070010002000a5fc07000c
:10145c001e0078000080fa00000006000400fa006c
:10146c002047980012002000ae40900010c0b3003e
:10147c005fff0700000f7800800c20009e007800b2
:10148c00808f500004003a00a08a2800a7fc0700b7
:10149c001000200093fc07000080fa0000000600fa
:1014ac000400fa00204798000001eb00ae409000c9
:1014bc0010c0b3004eff0700000f7800800c200016
:1014cc009e007800808f500004003a00308d280078
:1014dc0096fc07001000200082fc07000080fa0038
:1014ec00000006000000fa000001eb008040eb0059
:1014fc000040eb003eff07000080fa0000000600f1
:10150c000000fa00f7ff070080c0b300e4ff0700fb
:10151c000080fa00000006000000fa000080fa00cb
:10152c00000006000200fa00004f7800edff0700f3
:10153c00000000000080fa00000006000200fa0023
:10154c000040eb00004f7800010037000000000065
:10155c001e80fb000000e000fcff3a000100370099
:10156c0000000000ecff070070c0b300a9ff0700eb
:10157c00e10f5000faff3a0010c0b300004f7800a2
:10158c0010c0b300e7ff070000000000f0ff3700b9
:10159c000000fa00daff07000080fa0000000600e5
:020000040000fa
:1015ac00540900000600000002000000040922009b
:1015bc0000220000040900004400000000000000ac
:1015cc005a09000004000000020000003a2000004c
:1015dc00000000000008000088000000020000006d
:1015ec000100000000260800270826000826080035
:1015fc002608260008160800000000000000000065
:10160c0000000000000000000000000000000000ce
:10161c00000000000002080001014e00084f080005
:10162c004e084e00084e08004e083e000800000010
:10163c00000000000000000000000000000000009e
:10164c000000000000000000000002000802020080
:10165c007608770008760800760876000876080089
:10166c006608000000000000000000000000000000
:10167c00000000000000000000000000000000005e
:10168c0000082800085008000000000000000000be
:10169c000000000000000000880800007c00000032
:1016ac00020000006e6f2000657272006f72000005
:1016bc00646f6d0061696e0020657200726f72005c
:1016cc00007261006e67650020657200726f7200b7
:1016dc00006669006c652000706f730069746900a6
:1016ec006f6e69006e672000657272006f72000089
:1016fc006d756c00746962007974650020656e000c
:10170c00636f6400696e670020657200726f72000f
:10171c00006669006c6520006f7065006e206500c6
:10172c0072726f00720075006e6b6e006f776e00d8
:10173c0020657200726f720000657200726f720029
:10174c002023780078780000000000004809000091
:10175c000c000000000000005e0900000400000006
:10176c0000000000660900000200000000000000fc
:10177c0068090000020000000200000004000000e4
:10178c006209000004000000000000006a0900006b
:10179c000200000002000000010000006c090000c3
:0c17ac000200000000000000000000002f
:020000040000fa
:0200000401f009
:04000c00fdff0000f4
:00000001FF
