:020000040000fa
:080000000002040000000000f2
:020000040000fa
:10000800a2020000a2020000a2020000a202000058
:10001800a2020000a2020000a2020000a202000048
:10002800a2020000a2020000a2020000a202000038
:10003800a2020000a2020000a2020000a202000028
:020000040000fa
:020000040000fa
:100400006f9820000eff20000e0188000000000001
:10041000000020000000e000020032000001200087
:10042000200288000c000700e038210001002000b5
:1004300011000700000020000000e0000200320070
:100440000000020000000000461102000000000051
:100450000040da000000fe004440a900a007200090
:100460000000e0000300320000002000a00188002e
:100470004440a80000000600910188008000780038
:100480000000eb0015003700e280400032a0b4000d
:100490009101ba00e280400032a0b4009102ba009b
:1004a000e280400032a0b4000002eb00472bde00e7
:1004b000f507b200602ce10004003a000059eb009f
:1004c0008301e900fdff3e00040037006128e100e0
:1004d000010032000082eb00040007001101ba00a5
:1004e0000200e000e8ff3a00000006003159ba00bf
:1004f0008301e9000c0032002159ba008301e900b0
:10050000080032000400e00003003a00e2804000ee
:1005100032a0b400f5ff370011d9ba008301e90019
:10052000faff3a008100e800e180400032a0b40008
:1005300000000600000000000000000000000000b5
:10054000000000000040da000000fe002002e2008f
:1005500004003d002342ab00020032002302ab0046
:10056000feff32000040da00feff37000a00fa000a
:1005700011002000b1bf9f00c0bf9f006a805700dc
:10058000cf0307004fb897000080fa000000060074
:100590000a00fa00e20f500020003e00104c8000dc
:1005a000e10f500006003200802320004523200088
:1005b00023232000042320000000e00004003a0070
:1005c0008022200045222000232220000422200037
:1005d000060028001403630003003a0006087800b0
:1005e00000002800140a700013a8a30001003a00bc
:1005f00013a0a00002007800050037001388a300b4
:10060000feff32003102fb00840a78000000e9009e
:100610000000e000f9ff3a00080037003300200036
:10062000b3bf9f00c0bf9f00d1bf9f00e2bf9f002c
:100630006a805700a40307006fb997000200780092
:100640000080fa00000006000a00fa0051002000b5
:10065000b1bf9f00c0bf9f006a8057009c03070086
:100660005fb897000080fa0000000600889fbe0077
:1006700080047800204c80000000e00004003a0074
:100680000e0007000084eb000000e00008003500c9
:10069000284c80000900e0000500320009004400f9
:1006a000060007000000e00001003d000084eb00b0
:1006b000080078004f04be000000060080007800ab
:1006c0000100e00003003a0000002000204c8800f8
:1006d000000005000080eb0002002000828f500027
:1006e00002003e00214c88000000eb0000000600e4
:1006f000889fbe008a9fbe008c1f7800660007009e
:100700006d00330003866c006450e1002e0032005f
:100710006420e100330032006150e1002f0032001c
:100720006120e1003100320085855500eb07b00003
:1007300009002000080420000500370008044400d8
:1007400089844c000a0031000603430087834b0074
:100750000001530081815b00f8ff33000203be00fb
:100760000800a0000804440089844c00f6ff39000a
:10077000c639dd0083017300010032001300200040
:100780008904d1000884d3000998a3000500320031
:100790000800a7000300a0008904d1000884d3004a
:1007a0008b05e8008904d1000884d3000001eb0028
:1007b0000281d2001200070001f0a1000cf0a70096
:1007c00001f0a000450037006420e100470032003e
:1007d0000801be000200be00f7ff37006120e10003
:1007e000420032006000b800f3ff37000000200034
:1007f00001f82700f0ff37006011b80072003700e1
:1008000081002000618055000b003d000b0020009e
:1008100061fe2f000100e1001d00340082817100a3
:10082000610164008904d1000884d3000000e8005d
:10083000faff3a00710020006100640003007000bc
:10084000020060000900320061044400e0844c00b2
:100850000988a500050032008b05e8006808e10062
:1008600002003a008904d1000884d300f20f20006e
:100870000258e10005003d00c75ddd00f907b20048
:100880008980750008007800000006000bf827003a
:100890008b007800000005000004be00790007000e
:1008a0000003be000405be000200be007500070084
:1008b000844f7500000006000200be006450e10095
:1008c000050036006420e100020036000968a3003c
:1008d00001003a000800be000160a0004f06780049
:1008e0004f05be004f04be0000000600f0ff2f00c1
:1008f000f1ff2700f9ff3700889fbe008a9fbe00e6
:100900008c1f7800e4ff0700ebff330003866c00c8
:100910006450e100240032006420e100270032002e
:100920006150e100220032006120e100210032002c
:100930008b854200eb07b1000134b800003ab800e3
:100940000804420089844a00013ab8000030b80027
:100950008880400009014a00040033000000400084
:1009600081804800020149008b05e900c909dd00ca
:10097000830170000100320013002000c814de0063
:100980004814dd004709de001200b200c808de008e
:10099000088470009aff070001f0a1000cf0a70086
:1009a00001f0a000cdff37006120e100cfff320051
:1009b0000801be000200be00f7ff37006150e100f1
:1009c000fcff3a00c9ff3700889fbe008a9fbe0027
:1009d000008270000402710004827100260032005f
:1009e0000004be000200be006011b8006b092000c8
:1009f000950220000182cf000a0039000541b100b4
:100a00000082cf00070039000541b1000982cf0004
:100a1000040039000541b1000882cf00010039000f
:100a20000541b10005425200120032000a003b00ad
:100a300082817100610164008100d1000080d300d7
:100a40008984d3000884d3008b05e8000442e800c1
:100a5000f7ff3a00070037000804440089844c007f
:100a600000004800818048008b05e9000442e9004d
:100a7000f9ff3a0062ff07004f05be004f04be00b9
:100a800000000600c70ade00f107b200f50fb20051
:100a900008003200e1cf4200020032000170a000e5
:100aa00024000500810f70000100320004080500d9
:100ab00044000500810f700002003a001400050098
:100ac0008502e9000000400081c04800fcff3b00b7
:100ad0000170a00024000500000478000600370023
:100ae00001804000624b8000620078008100e800d5
:100af000714b880000000100714b8000804b80002a
:100b0000808f5000f6ff3900c0912000604b8800b4
:100b100020022000804b8800080078008bfe070030
:100b20000000e000070032001004e0000500320081
:100b300081862000b40007008186200020972000d5
:100b4000b10007008000eb00b04b800005000700fb
:100b500081862000ac00070081862000a0002000d4
:100b600041003700889fbe008004780001047800af
:100b700030022000808f54001300320007003c0038
:100b80000080e900808f54002b0032000c003c00f4
:100b90000900e00008003200110037004002200088
:100ba000808f54000a0032000000e800808f54005b
:100bb0000b003a0008003700088a200021003700a7
:100bc000688b20001f003700288c20001d00370094
:100bd000988d20001b003700288f20001900370057
:100be00050022000808f540015003e000800e000f5
:100bf00001003a00089620000191200008007800ca
:100c00003f000700a2002000110009008204d80064
:100c100003c3b30083c44000194c980011000900bd
:100c20000200d80003c04000004c98000340780048
:100c30007044980003003700988a200001003700b4
:100c400028902000080078004f04be000000060035
:100c5000c04b80000000e0000100320000000100f5
:100c60006097200000000600889fbe008a1f780061
:100c70000004be00c900900069009000808f500001
:100c80000500390009007800be0007008080eb00f5
:100c90000000e0001600350008457800490090008b
:100ca00008587800c00498001900780000b8a30024
:100cb00004003a0000a8a30007003200ea4f5400e5
:100cc00005003a0009007800140007008080eb005e
:100cd0000000e00006003a0000c02000190060009b
:100ce0000200320049009000e00498008a80fb0076
:100cf000010078004f0578004f04be000000060098
:100d00000001eb00e1417900037079000201e80085
:100d10000304e000fbff3a0000000600889fbe00cd
:100d20008a1f7800000478000800e0000d003a00f7
:100d3000e8882000700544008004eb00580078002b
:100d40000000e00004003200f4ff07000000e000b3
:100d500001003d008084eb008a0f5400f7ff3a0049
:100d60002500370000002200180060008004eb001e
:100d700021003200a80490000f0037000901510043
:100d8000384090000000fb008900780000fe07005a
:100d90000000e00007003c0028009000400498009c
:100da00060049800500c98001890a0008084eb001c
:100db000110037008084440048019000828f540065
:100dc000eeff390028009000400498009800780059
:100dd00002c020000281600001003a00380090004b
:100de00001e8a3000200320060049800010037000f
:100df000500c98008004eb00090078004f05780043
:100e00004f04be0000000600889fbe008a9fbe00ff
:100e100080047800010478002c003700c80090009e
:100e200068009000808f50000400390008007800ae
:100e3000540007000000e0003700350000402000ab
:100e40001800600009003200a100200009007800ad
:100e500042000700800578000b00e000030032002c
:100e6000618514000a8545000400370009007800f8
:100e700034000700000578008005eb004800900072
:100e8000e8009000808050008a8f500002003100fe
:100e9000010578008005eb000a01780089007800e0
:100ea00021000700480090000a004000400498001c
:100eb0000b00e000040032000800780097ff0700f4
:100ec0000000e00014003a008a8444001904e000a5
:100ed000d2ff3a00008020001800600006003200b7
:100ee000080078008dff0700800078000080eb008c
:100ef0000100e00009003a0001c020009880600075
:100f00000000eb00050032004800900060049800eb
:100f10000000eb00010037000080eb004f05be0031
:100f20004f04be0000000600800178000200370078
:100f3000b15978000201e9000200e000fcff3a002c
:100f40000000060080007800010178003104e00014
:100f5000fdff3a0000005100000006000001eb0018
:100f600000027800b041780081cf510001003a00c2
:100f7000040178000304e000f9ff3a000200780061
:100f800000000600889fbe008a1f780000047800d9
:100f9000c8009000680190000000eb00828f5000b4
:100fa0003c0039001800780022002900020160008e
:100fb000e20f510007003200012024000000e00091
:100fc00001003d0001202000008c70000080eb003b
:100fd000300037000200260002006000820f50003f
:100fe00009003a0038009000808f50000600390058
:100ff0000800780049ff0700800078000080eb00bf
:101000000100e00023003a001805780000c020002d
:101010000000650018003a00a8049000600220005b
:1010200008004000808f540013003a000020200088
:10103000ef000700200498000000e00005003a00df
:1010400029049800490498008904e80039049800ac
:10105000080037000a60a0000a0c780040049800dd
:10106000012020008080400031049800400c98004e
:10107000500c98000c0007002800900050049800c5
:10108000380090006004980000002600180c7000e2
:101090000000eb004f0578004f04be000000060082
:1010a000608f200061003700881f7800e8972000db
:1010b0001804e00003003a00f9ff070020c0b30065
:1010c000004c78004f04780000000600889fbe00a6
:1010d000000478000800780010ff07008004780002
:1010e0000004200018006000020032002800900078
:1010f0005a0007000000eb002004980038409000e0
:101100000004e000050035000000fb0017fd0700ab
:101110000000e000010032008084eb001810900015
:101120000000e0000800320047fd07000000e0007a
:10113000010032008084eb00181090004700070087
:101140000000eb0010149800000820001800600058
:10115000150032000001eb006000b8000389200098
:101160000202d00063027a00880f520005003a00a4
:101170000000400081804800008041000008eb0032
:101180000600370061004000e08048000201e800ee
:10119000e80f5000e08f5800f0ff3a000800780098
:1011a0002e0007000e003700000c780000c0eb0096
:1011b000304498006002200008004000200498009d
:1011c0004004980050049800400c98006004980077
:1011d000500c98007004980076004400000c9800b1
:1011e000090078004f04be0000000600881f780048
:1011f0000004eb006140b800e2ff2f00f3ff2f0076
:10120000b5000700e2892000620078000000e000dd
:1012100001003200adff07000804e800e80f5400a9
:10122000f4ff3a004f04780000000600c156200089
:101230000100e00008003200714b80000100e00076
:10124000050032008100e900714b88008100d00068
:10125000624b800000b17800000006000000e00052
:101260002f003200c0017800e38f51002c003600bf
:101270000308a3002a003a00e14b80000100e000cf
:1012800002003200810f500004003100110098006c
:10129000e04b8800160037008200780011019000b2
:1012a0000200e00002003200800f5100faff390016
:1012b0001102780084824000850f50001800390028
:1012c000808f520003003a0083084200010078003a
:1012d000070037000200e0000300320083014000f5
:1012e000830f51000e003900120098009000980002
:1012f000900090000100e000090032001001400061
:10130000828f500006003a00a29720000009eb00ef
:101310001001780011084100910090001100980020
:1013200000000600889fbe0000047800d14b8000ba
:101330000100e00002003200010078000d003700db
:10134000e14b8000c097200004003700910f54004b
:10135000250036000180e800910090000100e000c7
:10136000faff3a0010003700920f54001e003600ba
:101370000280e800100178000200e000faff3a0065
:1013800011017800e14b8000c09720000400370075
:10139000910f5400140036000180e8009100900085
:1013a000828f5000faff3a00094c8000888f540069
:1013b0000100310088047800090078003600070039
:1013c0000000e00004003a00888f5400050032005d
:1013d0008904d100f5ff3700091878009fff070046
:1013e000d2ff37000000eb004f04be0000000600f3
:1013f000881f7800630440000800a1008000eb0013
:10140000800f540021003600e30f540001003e001d
:101410004800200008007800c2ff07008000eb00b1
:101420000000e0001900320090007800910178007f
:1014300064815100880f51000300310011019000b8
:101440000208780007003700088140000208780091
:101450009101900013019800100178001109140007
:1014600088087800100178000000eb000200e0001e
:1014700004003200920190000300e00001003200fd
:101480000280e800d04b88008180e80001007800ed
:101490004f04780000000600800078000000eb0098
:1014a0000100e00005003400010078006ffc070037
:1014b000e10f400001003a000000eb0000000600d0
:1014c00000c0da000000060000c0da0000000600dc
:1014d00000c0da0000000600020ab900001bb900d3
:1014e0000200b800810042008100430000000600b5
:020000040000fa
:1014f0006765000074450000766500006e740000aa
:1015000053740000617400007573000020720000c5
:1015100065630000656900007665000064200000d6
:10152000696e0000766100006c69000064200000b4
:1015300065760000656e00007400000075700000a4
:10154000646100007465000045760000656e00006f
:10155000744100006374000069760000652000009b
:101560007265000063650000697600006564000034
:10157000206900006e760000616c00006964000064
:1015800020650000766500006e74000000750000a4
:10159000706400006174000065450000766500001d
:1015a0006e740000496e0000616300007469000001
:1015b0007665000020720000656300006569000028
:1015c0007665000064200000696e0000766100000e
:1015d0006c6900006420000065760000656e000004
:0415e0007400000093
:020000040000fa
:1015e4000400fa00004f7800114798001207980091
:1015f4001e4078000004e0000a003a000428ef00ce
:101604000628ef000828ef000a28ef000c28ef0056
:101614000e28ef001028ef001228ef001428ef0026
:10162400630037001e407800e14f500034003a0058
:101634001e4090000080fb00cf80de00920020005e
:1016440003002000820f5000838f58002a003e00c0
:1016540000600100090037000b0037000d0037005f
:10166400120037000e003700130037001500370052
:1016740017003700190037001b0037009e00900048
:10168400214088004a0037009e00900031408800c5
:10169400470037009e009000414088004400370016
:1016a4009e00900061408800410037009e00900039
:1016b400514088003e0037009e0090007140880031
:1016c4003b0037009e0090008140880038003700be
:1016d4009e00900091408800350037009e009000e5
:1016e400a1408800320037009e009000b14088007d
:1016f400000000002e003700800c20002d00370071
:101704001e407800e24f500029003a001e4090002d
:101714000080fb00cf80de00920020000300200048
:10172400820f5000838f58001f003e0000600100ac
:10173400090037000a0037000b0037000c0037009f
:101744000d0037000e0037000f003700100037007f
:1017540011003700120037002040800015003700c8
:1017640030408000130037004040800011003700f3
:10177400504080000f003700604080000d003700ab
:10178400704080000b003700804080000900370063
:101794009040800007003700a0408000050037001b
:1017a400b040800003003700800c200001003700a7
:1017b4000000eb000080fa00000006000400fa00bc
:1017c400204798000001eb00ae40900020c0b30019
:1017d40083ff0700000f7800800c20009e00780033
:1017e400808f500004003a0080a72800cbfc07003b
:1017f40010002000b7fc07001e0078000080fa00eb
:10180400000006000400fa0020479800120020009f
:10181400ae40900010c0b30071ff0700000f7800c5
:10182400800c20009e007800808f500004003a0055
:10183400e0a92800b9fc070010002000a5fc07005f
:101844000080fa00000006000400fa002047980017
:101854000001eb00ae40900010c0b30060ff070031
:10186400000f7800800c20009e007800808f5000cc
:1018740004003a0070ac2800a8fc07001000200007
:1018840094fc07000080fa00000006000000fa0043
:101894000001eb008040eb000040eb0050ff07002c
:1018a4000080fa00000006000400fa00004f7800ef
:1018b40011479800120798001e80fb00e10f5000aa
:1018c40011003200e10f500003003c000000e00072
:1018d400060032002b003700e20f500012003200e5
:1018e400e30f500016003200260037001e4090001f
:1018f4000080fb000000e0001b003a000228ef001b
:101904000000eb00200037001e4090000080fb0028
:101914000000e00016003a009e009000114088008c
:101924000000eb00180037001e4090000080fb0010
:101934000000e00010003a00104080001200370060
:101944001e4090000080fb000000e0000c003a0004
:10195400114080001e00900000804000104088006c
:101964000000eb000800370000000000050037000d
:1019740000000000030037000000000001003700f1
:101984000000000080f32f000080fa000000060031
:101994000600fa0020479800210798002e019000c5
:1019a400ae40900030c0b300bfff0700000f7800c6
:1019b40080f32f009e007800808f500004003a00ce
:1019c400e0a9280055fc07001000200041fc070096
:1019d4000080fa00000006000400fa002047980086
:1019e4000001eb00ae4090000040eb00aeff0700aa
:1019f400000f780080f32f009e007800808f500045
:101a040004003a00e0a9280044fc0700100020006c
:101a140030fc07000080fa00000006000400fa0011
:101a24002047980012002000ae40900020c0b30070
:101a34009dff0700000f780080f32f009e007800c0
:101a4400808f500004003a00e0a9280033fc07000e
:101a5400100020001ffc07001e0078000080fa0020
:101a6400000006000000fa0088ff07000040eb00b9
:101a7400d9ff070090c0b30073ff07000080fa008d
:101a8400000006000200fa00000f78001e00780033
:101a94006101b900e0ff2f00f1ff2f0002004000b8
:101aa400838048000201200003002000820f5000c0
:101ab400838f58002a003e000060010010003700a8
:101ac40011003700120037001300370014003700ec
:101ad4001d0037001e0037001f00370020003700ac
:101ae4001f0037001e0037001d0037001c003700a0
:101af40013003700100037000d0037000a003700cc
:101b04005003a800160037005023a8001400370023
:101b14005043a800120037005063a800100037009b
:101b24005083a8000e0037005123a8000c00370092
:101b34005143a8000a0037005163a8000800370089
:101b44005183a8000600370051a3a8000400370001
:101b540051c3a8000200370051e3a80000000000b0
:101b64000080fa00000006000000fa0041e3a9002a
:101b74004143a800001a80000080a1000090a10049
:101b8400001a8800001a80000040a0000050a00045
:101b94000060a0000070a100001a88004043a80063
:101ba40041a3a900101a800000e0a10000f0a100e8
:101bb400101a880043a3a9004363a8004343a80064
:101bc400111a800030f82f0000806000c000b300bc
:101bd400101a88004203a90045e3a900211a8000d5
:101be400f00f2e0000806000201a8800f0c3b300bc
:101bf40044e3b70041e3a8000080fa0000000600b7
:101c04000a00fa002007980031079800420798005c
:101c14003e009000e30f50001a003200e30f500022
:101c240005003c00e10f500008003200e20f5000b4
:101c34000d00320028003700e40f50001800320075
:101c4400e50f50001d003200230037004000200043
:101c5400000f7800b0002000100798004e0090009c
:101c6400100888001c0037000000eb00000f78000b
:101c7400c0002000100798004e0090006008880003
:101c84001500370010002000000f7800d00020005d
:101c9400100798004e009000700888000e0037006e
:101ca40020002000000f7800e000200010079800ba
:101cb4004e009000d0088800070037003000200054
:101cc400000f7800f0002000100798004e009000ec
:101cd400e0088800000000002e009000e20f500091
:101ce40020003200e30f50003a003200e10f5000b0
:101cf40054003a00c0c2a9001e00780000407800d9
:101d0400674060000080fb00670060004a00dd005f
:101d1400820c8000f13f2e00810061000100700000
:101d2400800c8800800c80000000a1000010a0003e
:101d34000020a000800c88001e0090000040780065
:101d44007f4060000080fb007f006000920c8000f8
:101d540001fe2f008100610001007000900c8800da
:101d640038003700c802a9001e007800004078003f
:101d7400674060000080fb00670060004a00dd00ef
:101d8400d20c8000f13f2e00810061000100700040
:101d9400d00c8800d00c80000000a1000010a0002e
:101da4000020a000d00c88001e00900000407800a5
:101db4007f4060000080fb007f006000e20c800038
:101dc40001fe2f008100610001007000e00c88001a
:101dd4001c003700c0c2a9001e0078000040780033
:101de400674060000080fb00670060004a00dd007f
:101df400220d8000f13f2e0081006100010070007f
:101e0400200d8800200d80000000a1000010a0001b
:101e14000020a000200d88001e00900000407800e3
:101e24007f4060000080fb007f006000320d800076
:101e340001fe2f008100610001007000300d880058
:101e4400000000000080fa00000006000600fa000e
:101e5400200798002e0090006101b900e0ff2f00d8
:101e6400f1ff2f000200400083804800020120009f
:101e740003002000820f5000838f580096003e001c
:101e840000600100100037001a00370024003700fa
:101e94002e003700380037006e0037007800370016
:101ea400820037008c0037008b0037008a0037002f
:101eb40089003700880037005b0037004f00370087
:101ec4004300370037003700001880008000eb0023
:101ed40048fa070002002f00f357240003fa070012
:101ee400323323003305240082fa0700008fbe003a
:101ef40079003700101880008000eb003dfa0700dd
:101f040002002f00f3572400f8f9070032332300ae
:101f14003305240077fa0700008fbe006e003700f7
:101f2400201880008000eb0032fa070002002f0026
:101f3400f3572400edf9070032332300330524005e
:101f44006cfa0700008fbe00630037003018800071
:101f54008000eb0027fa070002002f00f35724004b
:101f6400e2f90700323323003305240061fa070045
:101f7400008fbe0058003700401880008000eb003e
:101f84001cfa070002002f00f3572400d7f90700ba
:101f9400323323003305240056fa0700008fbe00b5
:101fa4004d003700901880008000eb0011fa070004
:101fb40002002f00f3572400ccf90700323323002a
:101fc400330524004bfa0700008fbe00420037009f
:101fd400a01880008000eb0006fa070002002f0022
:101fe400f3572400c1f907003233230033052400da
:101ff40040fa0700008fbe0037003700b018800099
:102004008000eb00fbf9070002002f00f3572400c7
:10201400b6f90700323323003305240035fa0700ec
:10202400008fbe002c003700c01880008000eb0039
:10203400f0f9070002002f00f3572400abf9070062
:1020440032332300330524002afa0700008fbe0030
:1020540021003700d01880008000eb00e5f907006c
:1020640002002f00f3572400a0f9070032332300a5
:10207400330524001ffa0700008fbe001600370046
:10208400e01880008000eb00daf9070002002f005e
:10209400f357240095f90700323323003305240055
:1020a40014fa0700008fbe000b003700f018800000
:1020b4008000eb00cff9070002002f00f357240043
:1020c4008af90700323323003305240009fa070094
:1020d400008fbe00000000001e00be000080fa0059
:1020e400000006000000fa005efe07000080fa000f
:1020f400000006000000fa000080fa00000006005c
:102104000000fa000080fa00000006000000fa0057
:102114000080fa00000006000000fa000080fa00c7
:10212400000006000000fa000080fa00000006002b
:102134000000fa000080fa00000006000000fa0027
:102144000080fa00000006000000fa000080fa0097
:10215400000006000200fa00004f7800cbfd0700e3
:10216400460007001e80fb00cf80de0092002000a6
:1021740003002000820f5000838f58001f003e0090
:1021840000600100090037000a0037000b00370027
:102194000c0037000d0037000e0037000f00370029
:1021a4001000370011003700120037001500070037
:1021b4001200370016000700100037001700070050
:1021c4000e003700180007000c0037001900070044
:1021d4000a0037001a000700080037001b00070038
:1021e400060037001c000700040037001d0007002c
:1021f400020037001e000700000000000080fa0003
:10220400000006000000fa000080fa00000006004a
:102214000000fa000080fa00000006000000fa0046
:102224000080fa00000006000000fa000080fa00b6
:10223400000006000000fa000080fa00000006001a
:102244000000fa000080fa00000006000000fa0016
:102254000080fa00000006000000fa000080fa0086
:10226400000006000000fa000080fa0000000600ea
:102274000000fa000080fa00000006000000fa00e6
:102284000080fa00000006000200fa00100020009e
:10229400000f78001e0078000000e0000200320009
:1022a400a3010700ffff3700170107000300070021
:1022b4000000eb000080fa00000006000000fa00b5
:1022c4000040eb00a3ff07000100370000000000fe
:1022d40000c8bf000080fb00cf80de009200200019
:1022e40003002000820f5000838f5800f7ff3e0048
:1022f400006001000a0037001f0037004500370066
:10230400590037006f00370094003700a7003700ea
:10231400ba003700ce003700e200370000000000aa
:1023240089ff070080c0b30024fd07000000e0001f
:10233400040032000068ef000040eb0085ff070056
:102344000900370080c0b3001cfd0700e10f5000f6
:10235400f2ff3a0010c0b30000e8b70010c0b300a9
:102364007cff070000000000e600370000000000ca
:1023740001003700000000005eff070063ff070054
:1023840071ff070080c0b3000cfd07000000e000ef
:10239400040032000068ef000040eb006dff07000e
:1023a4001a0037000040eb0004fd07000000e000c5
:1023b4000900320090c0b30000fd07000000e000f7
:1023c40005003a0020c0b30000e8b70020c0b30005
:1023d40060ff07000d00370020c0b300f7fc0700c2
:1023e4000000e000e1ff320090c0b300f3fc0700fe
:1023f4000000e000dfff320070c0b30000e8b70067
:1024040070c0b30053ff070000000000bd00370098
:10241400000000003aff07004bff070080c0b30034
:10242400e6fc07000000e000040032000068ef0052
:102434000040eb0047ff07000900370010c0b3005d
:10244400defc0700e10f5000f1ff3a0030c0b3009a
:1024540000e8b70030c0b3003eff070000000000f2
:10246400a80037000000000031ff070036ff070016
:1024740080c0b300d1fc07000000e000040032007b
:102484000068ef000040eb0032ff0700090037004e
:1024940050c0b300c9fc07000000e000f1ff3200a7
:1024a40040c0b30000e8b70040c0b30029ff0700f4
:1024b4000000000093003700000000000100370016
:1024c400000000001dff07001fff070080c0b300cd
:1024d400bafc07000000e000040032000068ef00ce
:1024e4000040eb001bff07001a00370060c0b30078
:1024f400b2fc07000000e0000900320090c0b30005
:10250400aefc07000000e00005003a0050c0b30034
:1025140000e8b70050c0b3000eff07000d003700fd
:1025240060c0b300a5fc07000000e000e2ff320039
:1025340090c0b300a1fc07000000e000e0ff3200ff
:1025440080c0b30000e8b70080c0b30001ff0700fb
:10255400000000006b00370000000000fafe0700d6
:1025640080c0b30095fc07000000e00004003200c6
:102574000068ef000040eb00f6fe0700090037009a
:1025840070c0b3008dfc07000000e000f2ff3200d1
:1025940060c0b30000e8b70060c0b300edfe070000
:1025a400000000005700370000000000e6fe0700ae
:1025b40080c0b30081fc07000000e000040032008a
:1025c4000068ef000040eb00e2fe0700090037005e
:1025d40070c0b30079fc07000000e000f2ff320095
:1025e40010c0b30000e8b70010c0b300d9fe070064
:1025f400000000004300370000000000c9fe07008f
:10260400d1fe070080c0b3006cfc07000000e000ae
:10261400040032000068ef000040eb00cdfe07002c
:102624000900370040c0b30064fc0700e10f50000c
:10263400f1ff3a0030c0b30000e8b70030c0b30087
:10264400c4fe0700000000002e0037000000000058
:10265400bdfe0700bcfe070080c0b30057fc0700a6
:102664000000e000040032000068ef000040eb00ce
:10267400b8fe07000900370080c0b3004ffc070014
:10268400e10f5000f1ff3a0010c0b30000e8b700ba
:1026940010c0b300affe07000000000019003700af
:1026a400000000009cfe0700a7fe070080c0b300e6
:1026b40042fc07000000e000040032000068ef0064
:1026c4000040eb00a3fe07000d00370030c0b3004c
:1026d4003afc07000000e00004003a0090c0b30098
:1026e40036fc07000000e000edff3a0060c0b300d4
:1026f40000e8b70060c0b30096fe070000000000c9
:1027040000000000f2fe37000000fa0075fe07002a
:082714000080fa00000006003d
:020000040000fa
:10271c000008000018000000000000006c09000018
:10272c0006000000020000001c092200002200002c
:10273c001c090000440000000000000072090000a9
:10274c0004000000020000003a200000000000001d
:10275c0018080000880000000200000001000000c2
:10276c00003e08003f083e00083e08003e083e00c0
:10277c00082e08000000000000000000000000000f
:10278c00000000000000000000000000000000003d
:10279c000002080001016600086708006608660070
:1027ac0008660800660856000800000000000000db
:1027bc00000000000000000000000000000000000d
:1027cc000000000000000200080202008e088f00ca
:1027dc00088e08008e088e00088e08007e08000007
:1027ec0000000000000000000000000000000000dd
:1027fc00000000000000000000000000180840006d
:10280c000868080000000000000000000000000044
:10281c0000000000a00800007c0000000200000086
:10282c006e6f2000657272006f720000646f6d0035
:10283c0061696e0020657200726f72000072610037
:10284c006e67650020657200726f72000066690029
:10285c006c652000706f7300697469006f6e69009d
:10286c006e672000657272006f7200006d756c00ef
:10287c00746962007974650020656e00636f640092
:10288c00696e670020657200726f720000666900e5
:10289c006c6520006f7065006e20650072726f00b1
:1028ac00720075006e6b6e006f776e0020657200a3
:1028bc00726f720000657200726f720020237800d4
:1028cc007878000000000000600900000c00000097
:1028dc000000000076090000040000000000000069
:1028ec007e090000020000000000000080090000ca
:1028fc000200000002000000040000007a09000041
:10290c00040000000000000082090000020000002a
:10291c000200000001000000840900000200000019
:08292c000000000000000000a3
:020000040000fa
:102934000000fa00030007000000eb000080fa002a
:10294400000006000000fa00420d230031002000c0
:1029540020002000aafc0700420d230031002000c3
:1029640030002000a6fc0700c002a900c022a90074
:10297400e024ef00e224ef00c402a800c422a8006f
:1029840013e1a800900880000040a0000050a100be
:10299400900888001221a900a0862100000d88005b
:1029a400a0862100500d88000080fa000000060077
:020000040000fa
:0200000401f009
:04000c00fdff0000f4
:020000040000fa
:0200000401f009
:04001c00fdff0000e4
:00000001FF
